{
  "contractName": "Contacts",
  "abi": [
    {
      "inputs": [],
      "payable": false,
      "stateMutability": "nonpayable",
      "type": "constructor"
    },
    {
      "anonymous": false,
      "inputs": [
        {
          "indexed": true,
          "internalType": "uint256",
          "name": "id",
          "type": "uint256"
        },
        {
          "indexed": false,
          "internalType": "string",
          "name": "onnx",
          "type": "string"
        },
        {
          "indexed": false,
          "internalType": "string",
          "name": "model",
          "type": "string"
        },
        {
          "indexed": false,
          "internalType": "string",
          "name": "aasx",
          "type": "string"
        },
        {
          "indexed": false,
          "internalType": "string",
          "name": "pt",
          "type": "string"
        }
      ],
      "name": "ContactCreated",
      "type": "event"
    },
    {
      "anonymous": false,
      "inputs": [
        {
          "indexed": true,
          "internalType": "uint256",
          "name": "id",
          "type": "uint256"
        },
        {
          "indexed": false,
          "internalType": "uint256",
          "name": "timestamp",
          "type": "uint256"
        }
      ],
      "name": "ContactDeleted",
      "type": "event"
    },
    {
      "anonymous": false,
      "inputs": [
        {
          "indexed": true,
          "internalType": "uint256",
          "name": "id",
          "type": "uint256"
        },
        {
          "indexed": false,
          "internalType": "string",
          "name": "onnx",
          "type": "string"
        },
        {
          "indexed": false,
          "internalType": "string",
          "name": "model",
          "type": "string"
        },
        {
          "indexed": false,
          "internalType": "string",
          "name": "aasx",
          "type": "string"
        },
        {
          "indexed": false,
          "internalType": "string",
          "name": "pt",
          "type": "string"
        },
        {
          "indexed": false,
          "internalType": "uint256",
          "name": "timestamp",
          "type": "uint256"
        }
      ],
      "name": "ContactUpdated",
      "type": "event"
    },
    {
      "anonymous": false,
      "inputs": [
        {
          "indexed": true,
          "internalType": "address",
          "name": "account",
          "type": "address"
        }
      ],
      "name": "ModifierAdded",
      "type": "event"
    },
    {
      "anonymous": false,
      "inputs": [
        {
          "indexed": true,
          "internalType": "address",
          "name": "account",
          "type": "address"
        }
      ],
      "name": "ModifierRemoved",
      "type": "event"
    },
    {
      "constant": true,
      "inputs": [
        {
          "internalType": "uint256",
          "name": "",
          "type": "uint256"
        }
      ],
      "name": "contacts",
      "outputs": [
        {
          "internalType": "uint256",
          "name": "id",
          "type": "uint256"
        },
        {
          "internalType": "string",
          "name": "onnx",
          "type": "string"
        },
        {
          "internalType": "string",
          "name": "model",
          "type": "string"
        },
        {
          "internalType": "string",
          "name": "aasx",
          "type": "string"
        },
        {
          "internalType": "string",
          "name": "pt",
          "type": "string"
        }
      ],
      "payable": false,
      "stateMutability": "view",
      "type": "function"
    },
    {
      "constant": true,
      "inputs": [],
      "name": "count",
      "outputs": [
        {
          "internalType": "uint256",
          "name": "",
          "type": "uint256"
        }
      ],
      "payable": false,
      "stateMutability": "view",
      "type": "function"
    },
    {
      "constant": true,
      "inputs": [
        {
          "internalType": "address",
          "name": "",
          "type": "address"
        }
      ],
      "name": "modifiers",
      "outputs": [
        {
          "internalType": "bool",
          "name": "",
          "type": "bool"
        }
      ],
      "payable": false,
      "stateMutability": "view",
      "type": "function"
    },
    {
      "constant": true,
      "inputs": [],
      "name": "owner",
      "outputs": [
        {
          "internalType": "address",
          "name": "",
          "type": "address"
        }
      ],
      "payable": false,
      "stateMutability": "view",
      "type": "function"
    },
    {
      "constant": false,
      "inputs": [
        {
          "internalType": "address",
          "name": "_account",
          "type": "address"
        }
      ],
      "name": "addModifier",
      "outputs": [],
      "payable": false,
      "stateMutability": "nonpayable",
      "type": "function"
    },
    {
      "constant": false,
      "inputs": [
        {
          "internalType": "address",
          "name": "_account",
          "type": "address"
        }
      ],
      "name": "removeModifier",
      "outputs": [],
      "payable": false,
      "stateMutability": "nonpayable",
      "type": "function"
    },
    {
      "constant": false,
      "inputs": [
        {
          "internalType": "string",
          "name": "_onnx",
          "type": "string"
        },
        {
          "internalType": "string",
          "name": "_model",
          "type": "string"
        },
        {
          "internalType": "string",
          "name": "_aasx",
          "type": "string"
        },
        {
          "internalType": "string",
          "name": "_pt",
          "type": "string"
        }
      ],
      "name": "createContact",
      "outputs": [],
      "payable": false,
      "stateMutability": "nonpayable",
      "type": "function"
    },
    {
      "constant": false,
      "inputs": [
        {
          "internalType": "uint256",
          "name": "_id",
          "type": "uint256"
        },
        {
          "internalType": "string",
          "name": "_onnx",
          "type": "string"
        },
        {
          "internalType": "string",
          "name": "_model",
          "type": "string"
        },
        {
          "internalType": "string",
          "name": "_aasx",
          "type": "string"
        },
        {
          "internalType": "string",
          "name": "_pt",
          "type": "string"
        }
      ],
      "name": "updateContact",
      "outputs": [],
      "payable": false,
      "stateMutability": "nonpayable",
      "type": "function"
    },
    {
      "constant": false,
      "inputs": [
        {
          "internalType": "uint256",
          "name": "_id",
          "type": "uint256"
        }
      ],
      "name": "deleteContact",
      "outputs": [],
      "payable": false,
      "stateMutability": "nonpayable",
      "type": "function"
    },
    {
      "constant": true,
      "inputs": [
        {
          "internalType": "uint256",
          "name": "_id",
          "type": "uint256"
        }
      ],
      "name": "getContact",
      "outputs": [
        {
          "internalType": "uint256",
          "name": "",
          "type": "uint256"
        },
        {
          "internalType": "string",
          "name": "",
          "type": "string"
        },
        {
          "internalType": "string",
          "name": "",
          "type": "string"
        },
        {
          "internalType": "string",
          "name": "",
          "type": "string"
        },
        {
          "internalType": "string",
          "name": "",
          "type": "string"
        }
      ],
      "payable": false,
      "stateMutability": "view",
      "type": "function"
    }
  ],
  "bytecode": "0x6080604052600080553480156200001557600080fd5b5033600160006101000a81548173ffffffffffffffffffffffffffffffffffffffff021916908373ffffffffffffffffffffffffffffffffffffffff160217905550620000cf6040518060800160405280605f81526020016200268b605f91396040518060a00160405280606e8152602001620027fb606e91396040518060a00160405280606b815260200162002727606b91396040518060a00160405280606981526020016200279260699139620000d560201b60201c565b62000550565b600160009054906101000a900473ffffffffffffffffffffffffffffffffffffffff1673ffffffffffffffffffffffffffffffffffffffff163373ffffffffffffffffffffffffffffffffffffffff1614806200017b5750600260003373ffffffffffffffffffffffffffffffffffffffff1673ffffffffffffffffffffffffffffffffffffffff16815260200190815260200160002060009054906101000a900460ff165b620001d2576040517f08c379a000000000000000000000000000000000000000000000000000000000815260040180806020018281038252603d815260200180620026ea603d913960400191505060405180910390fd5b60008081548092919060010191905055506040518060a00160405280600054815260200185815260200184815260200183815260200182815250600360008054815260200190815260200160002060008201518160000155602082015181600101908051906020019062000248929190620004a1565b50604082015181600201908051906020019062000267929190620004a1565b50606082015181600301908051906020019062000286929190620004a1565b506080820151816004019080519060200190620002a5929190620004a1565b509050506000547fdaa2ebae29e0229dcd48546134968849f9756ed67baa1facec63213119582c9f858585856040518080602001806020018060200180602001858103855289818151815260200191508051906020019080838360005b838110156200031f57808201518184015260208101905062000302565b50505050905090810190601f1680156200034d5780820380516001836020036101000a031916815260200191505b50858103845288818151815260200191508051906020019080838360005b83811015620003885780820151818401526020810190506200036b565b50505050905090810190601f168015620003b65780820380516001836020036101000a031916815260200191505b50858103835287818151815260200191508051906020019080838360005b83811015620003f1578082015181840152602081019050620003d4565b50505050905090810190601f1680156200041f5780820380516001836020036101000a031916815260200191505b50858103825286818151815260200191508051906020019080838360005b838110156200045a5780820151818401526020810190506200043d565b50505050905090810190601f168015620004885780820380516001836020036101000a031916815260200191505b509850505050505050505060405180910390a250505050565b828054600181600116156101000203166002900490600052602060002090601f016020900481019282601f10620004e457805160ff191683800117855562000515565b8280016001018555821562000515579182015b8281111562000514578251825591602001919060010190620004f7565b5b50905062000524919062000528565b5090565b6200054d91905b80821115620005495760008160009055506001016200052f565b5090565b90565b61212b80620005606000396000f3fe608060405234801561001057600080fd5b506004361061009e5760003560e01c8063b9ed6fca11610066578063b9ed6fca14610435578063ce88fd0414610463578063e0f478cb146106e3578063e6505e1e146108d5578063eafb96bd14610ac75761009e565b806306661abd146100a357806328e4ae73146100c15780638da5cb5b1461034b5780639d0f0ea214610395578063a013fe30146103f1575b600080fd5b6100ab610b0b565b6040518082815260200191505060405180910390f35b610349600480360360a08110156100d757600080fd5b8101908080359060200190929190803590602001906401000000008111156100fe57600080fd5b82018360208201111561011057600080fd5b8035906020019184600183028401116401000000008311171561013257600080fd5b91908080601f016020809104026020016040519081016040528093929190818152602001838380828437600081840152601f19601f8201169050808301925050505050505091929192908035906020019064010000000081111561019557600080fd5b8201836020820111156101a757600080fd5b803590602001918460018302840111640100000000831117156101c957600080fd5b91908080601f016020809104026020016040519081016040528093929190818152602001838380828437600081840152601f19601f8201169050808301925050505050505091929192908035906020019064010000000081111561022c57600080fd5b82018360208201111561023e57600080fd5b8035906020019184600183028401116401000000008311171561026057600080fd5b91908080601f016020809104026020016040519081016040528093929190818152602001838380828437600081840152601f19601f820116905080830192505050505050509192919290803590602001906401000000008111156102c357600080fd5b8201836020820111156102d557600080fd5b803590602001918460018302840111640100000000831117156102f757600080fd5b91908080601f016020809104026020016040519081016040528093929190818152602001838380828437600081840152601f19601f820116905080830192505050505050509192919290505050610b11565b005b610353610f3d565b604051808273ffffffffffffffffffffffffffffffffffffffff1673ffffffffffffffffffffffffffffffffffffffff16815260200191505060405180910390f35b6103d7600480360360208110156103ab57600080fd5b81019080803573ffffffffffffffffffffffffffffffffffffffff169060200190929190505050610f63565b604051808215151515815260200191505060405180910390f35b6104336004803603602081101561040757600080fd5b81019080803573ffffffffffffffffffffffffffffffffffffffff169060200190929190505050610f83565b005b6104616004803603602081101561044b57600080fd5b8101908080359060200190929190505050611187565b005b6106e16004803603608081101561047957600080fd5b810190808035906020019064010000000081111561049657600080fd5b8201836020820111156104a857600080fd5b803590602001918460018302840111640100000000831117156104ca57600080fd5b91908080601f016020809104026020016040519081016040528093929190818152602001838380828437600081840152601f19601f8201169050808301925050505050505091929192908035906020019064010000000081111561052d57600080fd5b82018360208201111561053f57600080fd5b8035906020019184600183028401116401000000008311171561056157600080fd5b91908080601f016020809104026020016040519081016040528093929190818152602001838380828437600081840152601f19601f820116905080830192505050505050509192919290803590602001906401000000008111156105c457600080fd5b8201836020820111156105d657600080fd5b803590602001918460018302840111640100000000831117156105f857600080fd5b91908080601f016020809104026020016040519081016040528093929190818152602001838380828437600081840152601f19601f8201169050808301925050505050505091929192908035906020019064010000000081111561065b57600080fd5b82018360208201111561066d57600080fd5b8035906020019184600183028401116401000000008311171561068f57600080fd5b91908080601f016020809104026020016040519081016040528093929190818152602001838380828437600081840152601f19601f82011690508083019250505050505050919291929050505061139e565b005b61070f600480360360208110156106f957600080fd5b8101908080359060200190929190505050611753565b6040518086815260200180602001806020018060200180602001858103855289818151815260200191508051906020019080838360005b83811015610761578082015181840152602081019050610746565b50505050905090810190601f16801561078e5780820380516001836020036101000a031916815260200191505b50858103845288818151815260200191508051906020019080838360005b838110156107c75780820151818401526020810190506107ac565b50505050905090810190601f1680156107f45780820380516001836020036101000a031916815260200191505b50858103835287818151815260200191508051906020019080838360005b8381101561082d578082015181840152602081019050610812565b50505050905090810190601f16801561085a5780820380516001836020036101000a031916815260200191505b50858103825286818151815260200191508051906020019080838360005b83811015610893578082015181840152602081019050610878565b50505050905090810190601f1680156108c05780820380516001836020036101000a031916815260200191505b50995050505050505050505060405180910390f35b610901600480360360208110156108eb57600080fd5b81019080803590602001909291905050506119e9565b6040518086815260200180602001806020018060200180602001858103855289818151815260200191508051906020019080838360005b83811015610953578082015181840152602081019050610938565b50505050905090810190601f1680156109805780820380516001836020036101000a031916815260200191505b50858103845288818151815260200191508051906020019080838360005b838110156109b957808201518184015260208101905061099e565b50505050905090810190601f1680156109e65780820380516001836020036101000a031916815260200191505b50858103835287818151815260200191508051906020019080838360005b83811015610a1f578082015181840152602081019050610a04565b50505050905090810190601f168015610a4c5780820380516001836020036101000a031916815260200191505b50858103825286818151815260200191508051906020019080838360005b83811015610a85578082015181840152602081019050610a6a565b50505050905090810190601f168015610ab25780820380516001836020036101000a031916815260200191505b50995050505050505050505060405180910390f35b610b0960048036036020811015610add57600080fd5b81019080803573ffffffffffffffffffffffffffffffffffffffff169060200190929190505050611d68565b005b60005481565b600160009054906101000a900473ffffffffffffffffffffffffffffffffffffffff1673ffffffffffffffffffffffffffffffffffffffff163373ffffffffffffffffffffffffffffffffffffffff161480610bb65750600260003373ffffffffffffffffffffffffffffffffffffffff1673ffffffffffffffffffffffffffffffffffffffff16815260200190815260200160002060009054906101000a900460ff165b610c0b576040517f08c379a000000000000000000000000000000000000000000000000000000000815260040180806020018281038252603d815260200180612088603d913960400191505060405180910390fd5b600085118015610c1d57506000548511155b610c8f576040517f08c379a000000000000000000000000000000000000000000000000000000000815260040180806020018281038252601a8152602001807f436f6e7461637420494420646f6573206e6f742065786973742e00000000000081525060200191505060405180910390fd5b6040518060a001604052808681526020018581526020018481526020018381526020018281525060036000878152602001908152602001600020600082015181600001556020820151816001019080519060200190610cef929190611f6b565b506040820151816002019080519060200190610d0c929190611f6b565b506060820151816003019080519060200190610d29929190611f6b565b506080820151816004019080519060200190610d46929190611f6b565b50905050847f841c6e8cd217c7f9782426a814a74145bad6929e641da2b1b1ed867dd1657fc48585858542604051808060200180602001806020018060200186815260200185810385528a818151815260200191508051906020019080838360005b83811015610dc3578082015181840152602081019050610da8565b50505050905090810190601f168015610df05780820380516001836020036101000a031916815260200191505b50858103845289818151815260200191508051906020019080838360005b83811015610e29578082015181840152602081019050610e0e565b50505050905090810190601f168015610e565780820380516001836020036101000a031916815260200191505b50858103835288818151815260200191508051906020019080838360005b83811015610e8f578082015181840152602081019050610e74565b50505050905090810190601f168015610ebc5780820380516001836020036101000a031916815260200191505b50858103825287818151815260200191508051906020019080838360005b83811015610ef5578082015181840152602081019050610eda565b50505050905090810190601f168015610f225780820380516001836020036101000a031916815260200191505b50995050505050505050505060405180910390a25050505050565b600160009054906101000a900473ffffffffffffffffffffffffffffffffffffffff1681565b60026020528060005260406000206000915054906101000a900460ff1681565b600160009054906101000a900473ffffffffffffffffffffffffffffffffffffffff1673ffffffffffffffffffffffffffffffffffffffff163373ffffffffffffffffffffffffffffffffffffffff1614611029576040517f08c379a00000000000000000000000000000000000000000000000000000000081526004018080602001828103825260328152602001806120c56032913960400191505060405180910390fd5b600260008273ffffffffffffffffffffffffffffffffffffffff1673ffffffffffffffffffffffffffffffffffffffff16815260200190815260200160002060009054906101000a900460ff16156110e9576040517f08c379a000000000000000000000000000000000000000000000000000000000815260040180806020018281038252601e8152602001807f4163636f756e7420697320616c72656164792061206d6f6469666965722e000081525060200191505060405180910390fd5b6001600260008373ffffffffffffffffffffffffffffffffffffffff1673ffffffffffffffffffffffffffffffffffffffff16815260200190815260200160002060006101000a81548160ff0219169083151502179055508073ffffffffffffffffffffffffffffffffffffffff167fdc19faa330982a36ae48709d1fcc5a2f58d45860055caa51aaefff18650403a360405160405180910390a250565b600160009054906101000a900473ffffffffffffffffffffffffffffffffffffffff1673ffffffffffffffffffffffffffffffffffffffff163373ffffffffffffffffffffffffffffffffffffffff16148061122c5750600260003373ffffffffffffffffffffffffffffffffffffffff1673ffffffffffffffffffffffffffffffffffffffff16815260200190815260200160002060009054906101000a900460ff165b611281576040517f08c379a000000000000000000000000000000000000000000000000000000000815260040180806020018281038252603d815260200180612088603d913960400191505060405180910390fd5b60008111801561129357506000548111155b611305576040517f08c379a000000000000000000000000000000000000000000000000000000000815260040180806020018281038252601a8152602001807f436f6e7461637420494420646f6573206e6f742065786973742e00000000000081525060200191505060405180910390fd5b600360008281526020019081526020016000206000808201600090556001820160006113319190611feb565b6002820160006113419190611feb565b6003820160006113519190611feb565b6004820160006113619190611feb565b5050807ff9217d4fd426b414e5229c4e3aca9aa22a8548fdae5ab3becfad84d2881ed525426040518082815260200191505060405180910390a250565b600160009054906101000a900473ffffffffffffffffffffffffffffffffffffffff1673ffffffffffffffffffffffffffffffffffffffff163373ffffffffffffffffffffffffffffffffffffffff1614806114435750600260003373ffffffffffffffffffffffffffffffffffffffff1673ffffffffffffffffffffffffffffffffffffffff16815260200190815260200160002060009054906101000a900460ff165b611498576040517f08c379a000000000000000000000000000000000000000000000000000000000815260040180806020018281038252603d815260200180612088603d913960400191505060405180910390fd5b60008081548092919060010191905055506040518060a00160405280600054815260200185815260200184815260200183815260200182815250600360008054815260200190815260200160002060008201518160000155602082015181600101908051906020019061150c929190611f6b565b506040820151816002019080519060200190611529929190611f6b565b506060820151816003019080519060200190611546929190611f6b565b506080820151816004019080519060200190611563929190611f6b565b509050506000547fdaa2ebae29e0229dcd48546134968849f9756ed67baa1facec63213119582c9f858585856040518080602001806020018060200180602001858103855289818151815260200191508051906020019080838360005b838110156115db5780820151818401526020810190506115c0565b50505050905090810190601f1680156116085780820380516001836020036101000a031916815260200191505b50858103845288818151815260200191508051906020019080838360005b83811015611641578082015181840152602081019050611626565b50505050905090810190601f16801561166e5780820380516001836020036101000a031916815260200191505b50858103835287818151815260200191508051906020019080838360005b838110156116a757808201518184015260208101905061168c565b50505050905090810190601f1680156116d45780820380516001836020036101000a031916815260200191505b50858103825286818151815260200191508051906020019080838360005b8381101561170d5780820151818401526020810190506116f2565b50505050905090810190601f16801561173a5780820380516001836020036101000a031916815260200191505b509850505050505050505060405180910390a250505050565b6003602052806000526040600020600091509050806000015490806001018054600181600116156101000203166002900480601f0160208091040260200160405190810160405280929190818152602001828054600181600116156101000203166002900480156118055780601f106117da57610100808354040283529160200191611805565b820191906000526020600020905b8154815290600101906020018083116117e857829003601f168201915b505050505090806002018054600181600116156101000203166002900480601f0160208091040260200160405190810160405280929190818152602001828054600181600116156101000203166002900480156118a35780601f10611878576101008083540402835291602001916118a3565b820191906000526020600020905b81548152906001019060200180831161188657829003601f168201915b505050505090806003018054600181600116156101000203166002900480601f0160208091040260200160405190810160405280929190818152602001828054600181600116156101000203166002900480156119415780601f1061191657610100808354040283529160200191611941565b820191906000526020600020905b81548152906001019060200180831161192457829003601f168201915b505050505090806004018054600181600116156101000203166002900480601f0160208091040260200160405190810160405280929190818152602001828054600181600116156101000203166002900480156119df5780601f106119b4576101008083540402835291602001916119df565b820191906000526020600020905b8154815290600101906020018083116119c257829003601f168201915b5050505050905085565b6000606080606080600086118015611a0357506000548611155b611a75576040517f08c379a000000000000000000000000000000000000000000000000000000000815260040180806020018281038252601a8152602001807f436f6e7461637420494420646f6573206e6f742065786973742e00000000000081525060200191505060405180910390fd5b611a7d612033565b600360008881526020019081526020016000206040518060a001604052908160008201548152602001600182018054600181600116156101000203166002900480601f016020809104026020016040519081016040528092919081815260200182805460018160011615610100020316600290048015611b3e5780601f10611b1357610100808354040283529160200191611b3e565b820191906000526020600020905b815481529060010190602001808311611b2157829003601f168201915b50505050508152602001600282018054600181600116156101000203166002900480601f016020809104026020016040519081016040528092919081815260200182805460018160011615610100020316600290048015611be05780601f10611bb557610100808354040283529160200191611be0565b820191906000526020600020905b815481529060010190602001808311611bc357829003601f168201915b50505050508152602001600382018054600181600116156101000203166002900480601f016020809104026020016040519081016040528092919081815260200182805460018160011615610100020316600290048015611c825780601f10611c5757610100808354040283529160200191611c82565b820191906000526020600020905b815481529060010190602001808311611c6557829003601f168201915b50505050508152602001600482018054600181600116156101000203166002900480601f016020809104026020016040519081016040528092919081815260200182805460018160011615610100020316600290048015611d245780601f10611cf957610100808354040283529160200191611d24565b820191906000526020600020905b815481529060010190602001808311611d0757829003601f168201915b505050505081525050905080600001518160200151826040015183606001518460800151839350829250819150809050955095509550955095505091939590929450565b600160009054906101000a900473ffffffffffffffffffffffffffffffffffffffff1673ffffffffffffffffffffffffffffffffffffffff163373ffffffffffffffffffffffffffffffffffffffff1614611e0e576040517f08c379a00000000000000000000000000000000000000000000000000000000081526004018080602001828103825260328152602001806120c56032913960400191505060405180910390fd5b600260008273ffffffffffffffffffffffffffffffffffffffff1673ffffffffffffffffffffffffffffffffffffffff16815260200190815260200160002060009054906101000a900460ff16611ecd576040517f08c379a000000000000000000000000000000000000000000000000000000000815260040180806020018281038252601a8152602001807f4163636f756e74206973206e6f742061206d6f6469666965722e00000000000081525060200191505060405180910390fd5b6000600260008373ffffffffffffffffffffffffffffffffffffffff1673ffffffffffffffffffffffffffffffffffffffff16815260200190815260200160002060006101000a81548160ff0219169083151502179055508073ffffffffffffffffffffffffffffffffffffffff167f7c939aedec44f259cbbb637e2f1f40f085a27ff586a982ad6376a9e415473e2460405160405180910390a250565b828054600181600116156101000203166002900490600052602060002090601f016020900481019282601f10611fac57805160ff1916838001178555611fda565b82800160010185558215611fda579182015b82811115611fd9578251825591602001919060010190611fbe565b5b509050611fe79190612062565b5090565b50805460018160011615610100020316600290046000825580601f106120115750612030565b601f01602090049060005260206000209081019061202f9190612062565b5b50565b6040518060a0016040528060008152602001606081526020016060815260200160608152602001606081525090565b61208491905b80821115612080576000816000905550600101612068565b5090565b9056fe4163636573732064656e6965643a204f6e6c7920617574686f72697a65642075736572732063616e20706572666f726d207468697320616374696f6e2e4163636573732064656e6965643a204f6e6c79206f776e65722063616e20706572666f726d207468697320616374696f6e2ea265627a7a72315820b8776d0e7ffba2662591b567ac2fc7efeb8a3092d6ec7c76984724c2ba4fa9f664736f6c6343000510003268747470733a2f2f697066732e696f2f697066732f516d5777447475624336333252366d6452657435594c3475784d7a364e435a75507573615a6e794d37614b3777723f66696c656e616d653d47726970706572416374696f6e2e6f6e6e784163636573732064656e6965643a204f6e6c7920617574686f72697a65642075736572732063616e20706572666f726d207468697320616374696f6e2e68747470733a2f2f697066732e696f2f697066732f516d5456446438534d7732617444575850647034556b7071617863476b3264577243654e3732464a4d6d717343613f66696c656e616d653d44656c7461526f626f744450505f696e666f726d6174696f6e2e6161737868747470733a2f2f697066732e696f2f697066732f516d524b526e6e4553344e4d6d69415a5731385a317469666356654b70335742694451547778715a79464c3861423f66696c656e616d653d44656c7461526f626f745f506172745f446574656374696f6e2e707468747470733a2f2f697066732e696f2f697066732f516d5032685639646f64397345346371484c6e7a473152435761696e717544474b714e4755746563556e475a75363f66696c656e616d653d44656c7461526f626f745f646574656374696f6e5f6d6f64656c2e656e67696e65",
  "source": "// SPDX-License-Identifier: MIT\r\npragma solidity >=0.4.22 <0.9.0;\r\n\r\ncontract Contacts {\r\n    uint public count = 0; //   \r\n    address public owner; //     \r\n    mapping(address => bool) public modifiers; //     \r\n\r\n    struct Contact {\r\n        uint id;\r\n        string onnx;\r\n        string model;\r\n        string aasx;\r\n        string pt;\r\n    }\r\n\r\n    mapping(uint => Contact) public contacts;\r\n\r\n    //   (    )\r\n    event ContactCreated(uint indexed id, string onnx, string model, string aasx, string pt);\r\n    event ContactUpdated(uint indexed id, string onnx, string model, string aasx, string pt, uint timestamp);\r\n    event ContactDeleted(uint indexed id, uint timestamp);\r\n    event ModifierAdded(address indexed account);\r\n    event ModifierRemoved(address indexed account);\r\n\r\n    //    owner ,    .\r\n    constructor() public {\r\n        owner = msg.sender; //   owner \r\n        createContact(\r\n            'https://ipfs.io/ipfs/QmWwDtubC632R6mdRet5YL4uxMz6NCZuPusaZnyM7aK7wr?filename=GripperAction.onnx',\r\n            'https://ipfs.io/ipfs/QmP2hV9dod9sE4cqHLnzG1RCWainquDGKqNGUtecUnGZu6?filename=DeltaRobot_detection_model.engine',\r\n            'https://ipfs.io/ipfs/QmTVDd8SMw2atDWXPdp4UkpqaxcGk2dWrCeN72FJMmqsCa?filename=DeltaRobotDPP_information.aasx',\r\n            'https://ipfs.io/ipfs/QmRKRnnES4NMmiAZW18Z1tifcVeKp3WBiDQTwxqZyFL8aB?filename=DeltaRobot_Part_Detection.pt'\r\n        );\r\n    }\r\n\r\n    //    modifier\r\n    modifier onlyOwner() {\r\n        require(msg.sender == owner, \"Access denied: Only owner can perform this action.\");\r\n        _;\r\n    }\r\n\r\n    modifier onlyAuthorized() {\r\n        require(msg.sender == owner || modifiers[msg.sender], \"Access denied: Only authorized users can perform this action.\");\r\n        _;\r\n    }\r\n\r\n    //    (onlyOwner  )\r\n    function addModifier(address _account) public onlyOwner {\r\n        require(!modifiers[_account], \"Account is already a modifier.\");\r\n        modifiers[_account] = true;\r\n        emit ModifierAdded(_account);\r\n    }\r\n\r\n    //    (onlyOwner  )\r\n    function removeModifier(address _account) public onlyOwner {\r\n        require(modifiers[_account], \"Account is not a modifier.\");\r\n        modifiers[_account] = false;\r\n        emit ModifierRemoved(_account);\r\n    }\r\n\r\n    //    (onlyAuthorized  )\r\n    function createContact(\r\n        string memory _onnx,\r\n        string memory _model,\r\n        string memory _aasx,\r\n        string memory _pt\r\n    ) public onlyAuthorized {\r\n        count++;\r\n        contacts[count] = Contact(count, _onnx, _model, _aasx, _pt);\r\n        emit ContactCreated(count, _onnx, _model, _aasx, _pt);\r\n    }\r\n\r\n    //    (onlyAuthorized  )\r\n    function updateContact(\r\n        uint _id,\r\n        string memory _onnx,\r\n        string memory _model,\r\n        string memory _aasx,\r\n        string memory _pt\r\n    ) public onlyAuthorized {\r\n        require(_id > 0 && _id <= count, \"Contact ID does not exist.\");\r\n\r\n        //  \r\n        contacts[_id] = Contact(_id, _onnx, _model, _aasx, _pt);\r\n        emit ContactUpdated(_id, _onnx, _model, _aasx, _pt, block.timestamp);\r\n    }\r\n\r\n    //    (onlyAuthorized  )\r\n    function deleteContact(uint _id) public onlyAuthorized {\r\n        require(_id > 0 && _id <= count, \"Contact ID does not exist.\");\r\n        \r\n        //  \r\n        delete contacts[_id];\r\n        emit ContactDeleted(_id, block.timestamp);\r\n    }\r\n\r\n    //    (  )\r\n    function getContact(uint _id) public view returns (uint, string memory, string memory, string memory, string memory) {\r\n        require(_id > 0 && _id <= count, \"Contact ID does not exist.\");\r\n        Contact memory contact = contacts[_id];\r\n        return (contact.id, contact.onnx, contact.model, contact.aasx, contact.pt);\r\n    }\r\n}\r\n",
  "sourcePath": "C:\\Users\\fe\\Desktop\\blockchain\\last\\contracts\\Contacts.sol",
  "compiler": {
    "name": "solc",
    "version": "0.5.16+commit.9c3226ce.Emscripten.clang"
  },
  "schemaVersion": "3.4.16",
  "updatedAt": "2024-11-02T01:45:13.739Z",
  "networkType": "ethereum",
  "devdoc": {
    "methods": {}
  },
  "userdoc": {
    "methods": {}
  }
}